{"abi":[{"type":"function","name":"emitProof","inputs":[{"name":"agentId","type":"string","internalType":"string"},{"name":"tradeId","type":"string","internalType":"string"},{"name":"commitmentHash","type":"bytes32","internalType":"bytes32"},{"name":"uri","type":"string","internalType":"string"}],"outputs":[],"stateMutability":"nonpayable"},{"type":"event","name":"ProofEmitted","inputs":[{"name":"agentId","type":"string","indexed":false,"internalType":"string"},{"name":"tradeId","type":"string","indexed":false,"internalType":"string"},{"name":"commitmentHash","type":"bytes32","indexed":false,"internalType":"bytes32"},{"name":"uri","type":"string","indexed":false,"internalType":"string"}],"anonymous":false}],"bytecode":{"object":"0x6080604052348015600e575f5ffd5b506102f28061001c5f395ff3fe608060405234801561000f575f5ffd5b5060043610610029575f3560e01c8063cbf90c9d1461002d575b5f5ffd5b61004760048036038101906100429190610131565b610049565b005b7f547d308dcd97cac258a93d10da67c1c8930ee0a52f4469cdd9b9b0f80d41fb0187878787878787604051610084979695949392919061025e565b60405180910390a150505050505050565b5f5ffd5b5f5ffd5b5f5ffd5b5f5ffd5b5f5ffd5b5f5f83601f8401126100be576100bd61009d565b5b8235905067ffffffffffffffff8111156100db576100da6100a1565b5b6020830191508360018202830111156100f7576100f66100a5565b5b9250929050565b5f819050919050565b610110816100fe565b811461011a575f5ffd5b50565b5f8135905061012b81610107565b92915050565b5f5f5f5f5f5f5f6080888a03121561014c5761014b610095565b5b5f88013567ffffffffffffffff81111561016957610168610099565b5b6101758a828b016100a9565b9750975050602088013567ffffffffffffffff81111561019857610197610099565b5b6101a48a828b016100a9565b955095505060406101b78a828b0161011d565b935050606088013567ffffffffffffffff8111156101d8576101d7610099565b5b6101e48a828b016100a9565b925092505092959891949750929550565b5f82825260208201905092915050565b828183375f83830152505050565b5f601f19601f8301169050919050565b5f61022e83856101f5565b935061023b838584610205565b61024483610213565b840190509392505050565b610258816100fe565b82525050565b5f6080820190508181035f83015261027781898b610223565b9050818103602083015261028c818789610223565b905061029b604083018661024f565b81810360608301526102ae818486610223565b90509897505050505050505056fea2646970667358221220c012758aa0cd2eb77d274cb9f0b583861427a8b1f3b30c871fdffea00e75801a64736f6c63430008210033","linkReferences":{}},"methodIdentifiers":{"emitProof(string,string,bytes32,string)":"cbf90c9d"},"id":0}